:020000040800F2
:10000000D85500205D020008552B00087521000816
:1000100005260008610500084137000800000000BF
:100020000000000000000000000000009D0100082A
:10003000D506000800000000F9010008B92D0008ED
:1000400077020008770200087702000877020008AC
:10005000770200087702000877020008770200089C
:10006000770200087702000877020008770200088C
:10007000770200087702000877020008770200087C
:10008000770200087702000877020008770200086C
:10009000770200087702000877020008770200085C
:1000A000770200087702000877020008770200084C
:1000B000792E00087702000877020008770200080E
:1000C000770200087702000877020008770200082C
:1000D00077020008F9350008770200087702000867
:1000E000770200087702000877020008770200080C
:1000F00077020008770200087702000877020008FC
:1001000077020008770200087702000877020008EB
:100110007702000877020008C92E0008770200085D
:100120007702000819060008250600087702000873
:1001300077020008000000000000000077020008BD
:1001400077020008770200087702000877020008AB
:10015000770200087702000877020008AD36000831
:10016000770200087702000877020008770200088B
:10017000770200087702000800000000000000007D
:100180007702000877020008DFF80CD000F0ECF8E6
:1001900000480047A13B0008D85500202C4B1968A7
:1001A0000868B0E8F04F80F30988BFF36F8F4FF015
:1001B000000080F3118870470000000008480068C4
:1001C000006880F308884FF0000080F3148862B65E
:1001D00061B6BFF34F8FBFF36F8F00DF00BF00BF6B
:1001E00008ED00E0DFF80C00016841F470010160E7
:1001F000704700BF88ED00E0EFF30980BFF36F8F19
:10020000134B1A681EF0100F08BF20ED108A20E96A
:10021000F04F106009B44FF0500080F31188BFF325
:100220004F8FBFF36F8F04F0B3FC4FF0000080F3EB
:10023000118809BC19680868B0E8F04F1EF0100F6B
:1002400008BFB0EC108A80F30988BFF36F8F704746
:1002500068000020EFF305807047000006488047E3
:1002600006480047FEE7FEE7FEE7FEE7FEE7FEE79B
:10027000FEE7FEE7FEE7FEE7692E000889010008B9
:100280002DE9F05F0546002092469B4688460646CB
:10029000814640241BE0284641464746224600F05E
:1002A00053F853465A46C01A914110D31146184686
:1002B000224600F03AF82D1A67EB01084F46224615
:1002C0000120002100F031F817EB00094E41201EFB
:1002D000A4F10104DFDC484631462A464346BDE826
:1002E000F09F40EA01039B0703D009E008C9121FF1
:1002F00008C0042AFAD203E011F8013B00F8013BE0
:10030000521EF9D27047D2B201E000F8012B491E0B
:10031000FBD270470022F6E710B513460A460446A2
:100320001946FFF7F0FF204610BD202A04DB203AD3
:1003300000FA02F1002070479140C2F1200320FA38
:1003400003F3194390407047202A04DB203A21FA36
:1003500002F00021704721FA02F3D040C2F12002DE
:100360009140084319467047064C074D06E0E06887
:1003700040F0010394E8070098471034AC42F6D3EC
:10038000FFF706FFDC580008FC58000810B53B4892
:100390002DED048B9FED388ADFED348A9FED349A82
:1003A000DFED349AF0EE682AB0EE492AF0EE691AD1
:1003B000B0EE481AF0EE480AB0EE480A03F0B8FC76
:1003C0002E48F0EE682AB0EE492AF0EE691AB0EE37
:1003D000481AF0EE480AB0EE480A383003F0A8FC9C
:1003E0009FED279A2548F0EE682AB0EE492ADFED06
:1003F000251AB0EE481AF0EE480AB0EE480A7030FE
:1004000003F096FC1D48F0EE682AB0EE492AF0EEA3
:10041000481AB0EE481AF0EE480AB2EE040AA830C4
:1004200003F086FC1548F0EE682AB0EE492AF0EE9B
:10043000481AB0EE481AF0EE480AB2EE040AE0306C
:1004400003F076FCF0EE682AF0EE481AB0EE481A97
:10045000F0EE480AB0EE480ABDEC048BBDE810404F
:100460009FED092A094803F063BC00006F12033BAB
:100470000000FA430000484300000000A8030020E9
:10048000000096430000C84200001643C00400204C
:100490001448002100F8301F0121417002218170B1
:1004A0000321C1700421017105214171062181716F
:1004B0000721C17108210172092141720A2180F8C6
:1004C00031100B2180F832100C2180F833100D21EF
:1004D00080F834100E2180F835100F2180F8361086
:1004E00070470000080300201CB5002403F08DFBBA
:1004F000184E194F194D0190012101A804F02CFA52
:100500001448303800F006F912480C3002F05AFB5B
:10051000104B009403F10C02A2F11801A1F1240088
:1005200002F0FCFB96ED010A87ED000A96ED000A49
:1005300087ED010AA888012805D1064900220C315F
:10054000044802F07BF8A88808B902F0E7FA641CB6
:10055000D2E700008C050020340500204400002074
:10056000FEE700002DE9F04700270425DFF8A08012
:10057000DFF8A09050383E4601F1060A102845D217
:10058000DFE800F01108130C1517191B1D1F21447B
:100590004444442334240325402702E03D2403251A
:1005A0002E27012613E0302411E037242BE03A24D3
:1005B00029E041240BE0452409E0492407E04D24CB
:1005C00005E0512403E0552401E0D8F82440032A33
:1005D00019D04DB16A0009EB4400FFF782FED8F84C
:1005E0001420294620469047002E0FD0720009EBB8
:1005F00047005146FFF775FE31463846D8F81420BB
:10060000BDE8F047104703250026E3E7BDE8F08783
:1006100000000020E8010020014800F06BB9000054
:10062000FC070020014800F065B900009C0700208D
:1006300001681823CAB2103AB2FBF3F2054B6FF30C
:100640000901032A9B5CC36500D9091D8165084621
:10065000704700008C58000810B5014600208B69D7
:100660008A6A4FF0C07453B1B3F5005F15D072B110
:10067000012A0CD0022A0AD0032A09D104E01AB1B7
:10068000012A06D0022A03D1C96AC90100D5012076
:1006900010BDC96AA142FAD010BD002AF7D0012AC4
:1006A000F2D0022AF3D0032AF3D010BD30B504688B
:1006B000256825F480252560046863608368402BE5
:1006C000036803D099600068C26030BD9A6000681A
:1006D000C16030BD704772B6FEE7B5EEC00AF1EEFC
:1006E00010FA07DCB5EEC00AF1EE10FA02D2BFEE46
:1006F000000A7047B7EE000A7047000001498860A1
:10070000704700004C00002001480088704700003E
:100710004C000020F0B5404A117800297AD03F4FB4
:100720009FED3F0A3F4C0021F3EE000ADFED3E1A39
:1007300004F10C039FED3D1A03F10C0507EB410694
:10074000B6F968C002EE10CA04EB810CB8EEC22AFA
:1007500022EE002A22EE202A8CED002AB6F96EC085
:1007600002EE10CA03EB810CB8EEC22A22EE002A78
:1007700022EE212A8CED002AB6F97A6002EE106A88
:1007800005EB8106491CB8EEC22A032922EE002A95
:1007900022EE012A86ED002AD0DB1178C9070FD09E
:1007A00094ED000A80ED030A94ED010A80ED040A3D
:1007B00094ED020A80ED050A117821F00101117013
:1007C0001178890711D593ED010A80ED060A93EDA2
:1007D000000AB1EE400A80ED070A93ED020A80EDAF
:1007E000080A117821F0020111701178490711D51A
:1007F00095ED010A80ED000A95ED000AB1EE400A80
:1008000080ED010A95ED020A80ED020A107820F0D1
:1008100004001070F0BD000028000020E801002056
:1008200000000038100500200000FA4400003443A6
:100830000149085C70470000A00800202DE9F04144
:100840000446876D00F0C6FA064694F83500002588
:10085000022806D08020606584F834500120BDE86D
:10086000F0812068016821F016010160206841696B
:1008700021F080014161206C08B9A06C20B1206892
:10088000016821F0080101602068016821F0010180
:1008900001600CE000F09EFA801B052807D920209B
:1008A0006065032084F8350084F83450D7E7206869
:1008B0000068C007EED194F85C103F208840B86013
:1008C000012084F8350084F834500020C7E790F800
:1008D0003510022903D08021416501207047052190
:1008E00080F835100068016821F0010101600020E6
:1008F000704700002DE9F84304464FF00009CDF899
:10090000009063484FF41651A56D0068B0FBF1F7F5
:100910002E6894F85C10082000FA01F131420FD0E3
:1009200021680A6852070BD50A6822F004020A609F
:1009300094F85C108840A860606D40F0010060652C
:1009400094F85C104FF0010808FA01F0304208D02A
:1009500021684969090604D5A860606D40F002006D
:10096000606594F85C1004208840304208D021680B
:100970000968890704D5A860606D40F004006065CF
:1009800094F85C1010208840304218D02168096823
:10099000090714D5A86020680168490304D50068D8
:1009A000000308D5A16C07E00168C90503D40168FC
:1009B00021F008010160216C09B12046884794F8B4
:1009C0005C1020208840304231D021680968C90677
:1009D0002DD5A86094F8350005282068016806D058
:1009E000490347D5006800031DD4616C1CE021F069
:1009F000160101602068416921F080014161206C8D
:100A000008B9A06C20B12068016821F008010160DC
:100A100094F85C103F208840A86084F8358084F802
:100A20003490216D1FE0E16B09B120468847606D6D
:100A300000282BD0606DC00714D0052084F8350045
:100A40002068016821F0010101600098401C0090BD
:100A5000B84203D820680068C007F6D184F8358012
:100A600084F83490E16C002910D001B02046BDE834
:100A7000F04308470168C905D5D4016821F0100189
:100A8000016084F8358084F83490CCE7BDE8F883C1
:100A9000640000202DE9F041044600F09BF9064671
:100AA0005CB1022084F83500002584F834502068B9
:100AB000016821F0010101600DE00120BDE8F08135
:100AC00000F088F9801B052805D9202060650320E7
:100AD00084F83500F2E720680068C007F0D122688A
:100AE000116820480140D4E901031843D4E90336D2
:100AF0003343184363691843A3691843E3691843F0
:100B0000236A18430843616A042903D1D4E90B130B
:100B100019430843106020684069666A20F00701A5
:100B200030460E43012704280CD1A06A0643E06A30
:100B300040B12046FFF790FD20B14020606584F869
:100B40003570BAE7206846612046FFF771FD94F8DA
:100B50005C203F2191408160656584F835700020FC
:100B6000ACE700003F8010F02DE9F0410446866DAF
:100B700090F83400002501280DD0012084F83400BD
:100B800094F835700020012F07D084F83400022536
:100B90002846BDE8F0810220FBE7022784F8357083
:100BA00060652046FFF782FD94F85C103F20884086
:100BB000B0602068016841F016010160206C20B12E
:100BC0002068016841F0080101602068016841F077
:100BD00001010160DCE700002DE9F84FDFF8BCA15E
:100BE0000022012503264FF00F090AF1040BAAF198
:100BF000040E00BF0B6805FA02F42340A34270D133
:100C00000F7907F00307012F01D0022F16D1876853
:100C10004FEA420806FA08FC27EA0C07D1F80CC094
:100C20000CFA08FC4CEA070CC0F808C04768A74358
:100C30000C79C4F3001494403C4344600C79E443C1
:100C4000A4070AD0C4684FEA420C06FA0CF7BC436A
:100C50008F6807FA0CF72743C7600C7904F0030488
:100C6000022C12D1D40800EB840CDCF8204057078A
:100C7000FF0E09FA07F824EA0804D1F8108008FAF0
:100C800007F848EA0408CCF8208004684FEA420CD0
:100C900006FA0CF7BC430F7907F0030707FA0CF7C5
:100CA000274307604C6814F4403F70D03C4C2768E1
:100CB00047F480472760246822F0030704F4804447
:100CC0000094384C07EB040CDCF8084897074FEA0F
:100CD000177809FA08F7BC43334FB84202D100270E
:100CE00024E054E0314FB84201D101271EE0304FDB
:100CF000B84201D1022719E02E4FB84201D1032793
:100D000014E02D4FB84201D104270FE02B4FB84219
:100D100001D105270AE02A4FB84201D1062705E094
:100D2000284FB84201D1072700E0082707FA08F743
:100D30002743CCF80878DAF800405746D1F804C0C9
:100D40009C435FEACC2C00D51C433C60DBF80040A0
:100D50005F46D1F804C09C435FEA8C2C00D51C434D
:100D60003C60DEF800407746D1F804C09C435FEA5F
:100D70008C3C00D51C433C60084F083F3C68D1F8D0
:100D800004C09C435FEACC3C00D51C433C60521C31
:100D9000102AFFF42FAFBDE8F88F0000083C014097
:100DA000443802400030014000000240000402408C
:100DB00000080240000C02400010024000140240F3
:100DC00000180240001C02400AB18161704709040A
:100DD000FBE70000014880687047000058000020D1
:100DE00002488168027811448160704758000020F1
:100DF0000B4810B5016841F400710160016841F4CD
:100E000080610160016841F480710160032000F09D
:100E10009FF80F2000F006F800F050F8002010BDF9
:100E2000003C024030B505461F4887B000240168E9
:100E300041F010010160006806A900F01000009068
:100E400001A800F031F90498A8B100F04DF9400074
:100E50001649174AB0FBF1F11648491E026040F2EC
:100E6000E732C0E90324C0E90114846100F08CFB7F
:100E7000040003D015E000F037F9E9E70D4800F071
:100E8000CDFB04000DD1362000F034F8102D07D230
:100E900000222946362000F03BF80748056000E0B4
:100EA000012407B0204630BD4038024040420F00C8
:100EB00000100040B80800205C0000200C4882B000
:100EC000016841F480410160006800F480400090B6
:100ED0000748001F016841F080510160006800224E
:100EE00000F0805000900F21901E02B000F010B86A
:100EF00044380240002809DB00F01F020121914024
:100F00004009800000F1E020C0F8001170470000A7
:100F1000F0B40E4B1B680C46C3F30223C3F1070564
:100F2000042D00D90425191D072901D2002300E052
:100F3000DB1E012606FA05F1491E214099409E401C
:100F4000761E16403143F0BC02F0C0BD0CED00E04F
:100F5000064900F0070208684FF6FF03184040EA10
:100F60000220034A10430860704700000CED00E0C7
:100F70000000FA052DE9F0470E46050065D0DFF8C0
:100F80001481D8F80000F7B200F00700B04207D291
:100F900088F80070D8F8000000F00700B04254D183
:100FA00028683D4C810712D5400703D5206840F4DE
:100FB000E05020602878000703D5206840F46040A6
:100FC00020602068A96820F0F0000843206028789D
:100FD000C0072DD0304968680839012812D002288E
:100FE00013D0032811D00968890700292DDA216858
:100FF00021F0030101432160FFF7ECFE814641F23D
:10100000883A0EE009688903EFE709688901ECE78F
:10101000FFF7E0FEA0EB0901514502D90320BDE82E
:10102000F0872068696800F00C00B0EB810FEFD109
:10103000D8F80010404601F00701B14207D9077007
:10104000006800F00700B04201D00120E7E72878EF
:10105000400705D52068E96820F4E0500843206087
:101060002878000706D52068296920F4604040EA06
:10107000C100206000F058F82168084AC1F303114C
:10108000515CC8400649086006480068FFF7CAFE80
:101090000020C4E7003C0240083802409458000891
:1010A000640000205C0000200F2202600C4A1368DC
:1010B00003F003034360136803F0F00383601368D5
:1010C00003F4E053C36012684FF4E05303EAD20222
:1010D00002610448006800F00700086070470000E3
:1010E00008380240003C024004480549006809688D
:1010F000044AC1F38221515CC8407047640000205B
:1011000008380240A45800080448054900680968E6
:10111000044AC1F34231515CC8407047640000206A
:1011200008380240A4580008154810B5006810F0AF
:101130000C02144813D04110042A0FD0082A0ED1F3
:101140000F4C241F2268236802F03F025B0207D580
:101150002068C0F38810A0FB010106E0084610BD1E
:101160002168C1F38811A1FB00010023FFF788F873
:101170002168C1F30141491C4900B0FBF1F010BDE9
:10118000083802400024F4002DE9F84F04006ED026
:101190002078DFF84C93C007A9F104054AD009F183
:1011A00004000168C1F38101012908D00068C0F37F
:1011B000810002280AD1D9F80000400206D528682B
:1011C000800337D560680028E1D033E06068B0F56F
:1011D000803F10D0B0F5A02F286810D020F48030C8
:1011E0002860286820F4802028606068A8B1FFF794
:1011F000F1FD06460DE0286840F48030F4E740F445
:1012000080202860F7E700BFFFF7E4FD801B64281B
:1012100073D828688003F7D50CE0FFF7DBFD06469E
:1012200005E000BFFFF7D6FD801B6428F0D82868D2
:101230008003F7D42078DFF8AC8280074FF0000AF3
:101240003ED5A748001D016811F00C0F08D00068BA
:10125000C0F3810002280BD1D9F80000400207D466
:101260002868800716D5E068012800D112E033E134
:10127000E068B8B10120C8F80000FFF7ABFD0646F2
:1012800005E000BFFFF7A6FD801B0228C0D8286834
:101290008007F7D52868216920F0F80040EAC100EE
:1012A00028600DE0C8F800A0FFF794FD064604E0B2
:1012B000FFF790FD801B02281FD828688007F7D40D
:1012C0002078000722D5864F87486169703771B151
:1012D00001210160FFF77EFD064604E0FFF77AFD7D
:1012E000801B022809D838688007F7D50EE0C0F8BF
:1012F00000A0FFF76FFD064605E082E0FFF76AFDFC
:10130000801B02287DD838688007F7D420784007F2
:1013100068D5DFF8CCB100270BF13C0BDBF80000FF
:10132000C0000BD4DBF8001041F08051CBF8001066
:10133000DBF80000012700F0805000906B4E306811
:10134000C00510D4306840F480703060FFF742FD73
:10135000009005E0FFF73EFD0099401A022850D8A2
:101360003068C005F6D55E4EA0686C3601280FD0F7
:101370000528306810D020F001003060306820F07F
:1013800004003060A068B8B1FFF724FD00900FE0C2
:10139000306840F00100F4E740F004003060F7E707
:1013A000FFF718FD0099411A41F28830814266D852
:1013B00030688007F4D50EE0FFF70CFD009007E0E1
:1013C000FFF708FD0099411A41F28830814256D852
:1013D00030688007F4D42FB1DBF8001021F0805181
:1013E000CBF80010A069C8B33D49091D0968C1F3D5
:1013F000810102294AD00228504607D0C8F860006F
:1014000000E03CE0FFF7E6FC04463BE04746C8F856
:101410006000FFF7DFFC064605E000BFFFF7DAFCDF
:10142000801B02282BD828688001F7D4D4E9070153
:101430000843A16A2E4A490802EB0141626A41EA67
:101440008211084394F82C1040EA0161C9F8001099
:1014500001203866FFF7BEFC044606E03EE000BF10
:10146000FFF7B8FC001B022809D828688001F7D5CF
:1014700034E000BFFFF7AEFC001B022802D90320B6
:10148000BDE8F88F28688001F4D427E00128F7D060
:10149000D9F80000E26900F4800191421CD1226A6F
:1014A00000F03F01914217D147F6C071626A0140D6
:1014B000B1EB821F10D1A26A4FF0FF3300F440312C
:1014C00003EB5202B1EB024F06D194F82C1000F05E
:1014D0007060B0EB016F01D00120D1E70020CFE7B1
:1014E0000438024000004742800E4742007000402E
:1014F0000000FFFF7047704770B590F83C20012A4C
:1015000032D0012480F83C40022280F83D2003685C
:101510005A689D6822F070060A6832435A60134B7D
:1015200002689A4214D0B2F1804F11D0104B9A4207
:101530000ED0104B9A420BD00F4B9A4208D00F4B53
:101540009A4205D00E4B9A4202D00E4B9A4204D1D9
:10155000496825F080031943916080F83D400021DF
:1015600080F83C10084670BD022070BD00000140AC
:101570000004004000080040000C0040000401404E
:10158000004001400018004010B5040003D094F85A
:101590003D0010B107E0012010BD002084F83C00A0
:1015A000204600F01FF8022084F83D00211D20682D
:1015B00001F090FC012084F8460084F83E0084F895
:1015C0003F0084F8400084F8410084F8420084F829
:1015D000430084F8440084F8450084F83D0000206E
:1015E00010BD000008B50068B0F1804F12D10A4864
:1015F000016841F0010101600068002200F0010073
:10160000009004211C20FFF783FCBDE808401C204B
:10161000FFF770BC08BD00004038024090F83D1054
:10162000012901D001207047022180F83D10016896
:10163000CA6842F00102CA6000681149884214D0A9
:10164000B0F1804F11D00F4988420ED00E49884228
:101650000BD00E49884208D00D49884205D00D496B
:10166000884202D00C49884204D1816801F0070108
:10167000062903D0016841F0010101600020704794
:10168000000001400004004000080040000C004041
:1016900000040140004001400018004070B50446BD
:1016A00090F83C000025012817D0012684F83C6002
:1016B000022084F83D002068826822F0770222F43C
:1016C0007F4282600868502838D00DDC20284FD037
:1016D00005DC90B3102811D14AE0022070BD3028FB
:1016E00046D040280AD13BE060282FD070280DD08A
:1016F000B0F5805F03D0B0F5005F12D0012584F80B
:101700003D60002084F83C00284670BDCB68D1E9DC
:101710000121206801F057FC2068816841F07701C1
:1017200009E0CB68D1E90121206801F04CFC206878
:10173000816841F480418160E1E719E0CA68496845
:10174000206801F015FD5021206806E0CA6849684C
:10175000206801F01EFD6021206801F03EFCCEE70C
:10176000CA684968206801F003FD40212068F4E759
:10177000226801461046F0E770472DE9F041044623
:101780000068C66805694FF00007A90713D5B107BF
:1017900011D5F91E0161012020772068806980073A
:1017A000204602D0FFF7E8FF04E000F0E5F820460D
:1017B00000F0A4F92777680716D5700714D52168BB
:1017C0006FF004000861022020772068806910F41F
:1017D000407F204602D0FFF7CFFF04E000F0CCF8B6
:1017E000204600F08BF92777280715D5300713D549
:1017F00021686FF008000861042020772068C06924
:101800008007204602D0FFF7B7FF04E000F0B4F8ED
:10181000204600F073F92777E80616D5F00614D5B0
:1018200021686FF010000861082020772068C069E7
:1018300010F4407F204602D0FFF79EFF04E000F046
:101840009BF8204600F05AF92777E80708D0F00700
:1018500006D021686FF001000861204600F0B4F95D
:10186000280608D5300606D521686FF0800008618B
:101870002046FFF73FFE680608D5700606D52168AA
:101880006FF040000861204600F0A8F9A8060AD5CC
:10189000B00608D521686FF0200008612046BDE839
:1018A000F041FFF728BEBDE8F081000070B586B0BA
:1018B000044614216846FEF72DFD294A20680024BD
:1018C00028490225284E90421BD1086840F00100AB
:1018D0000860086800F001000590086840F0020008
:1018E00008600868694600F002000590C02000907A
:1018F000CDE901541D48CDE90345FFF76DF90320FB
:101900000CE01B4A904215D1086840F002000860C4
:10191000086800F0020005904FF440700090CDE997
:10192000015469463046CDE9034500BFFFF754F93D
:1019300006B070BD0F4A9042FAD1086840F002002C
:1019400008600868694600F002000590D000009029
:10195000CDE901540920CDE903403046E6E7000017
:101960000004004030380240000402400000024001
:101970000008004000180040704770B5044690F819
:101980003C0000260D4601280FD0012084F83C00C1
:101990006AB1042A1DD0082A2FD00C2A3FD0012674
:1019A000002084F83C00304670BD022070BD2068E5
:1019B00001F01CFB2068816941F008018161206809
:1019C000816921F004018161206881692A691143DC
:1019D00011E0206801F03AFB2068816941F4006160
:1019E00081612068816921F4806181612068816959
:1019F0002A6941EA02218161D2E7206801F05CFB9B
:101A00002068C16941F00801C1612068C16921F005
:101A10000401C1612068C1692A69114311E020688D
:101A200001F07EFB2068C16941F40061C16120685A
:101A3000C16921F48061C1612068C1692A6941EAF4
:101A40000221C161ACE710B5040003D094F83D0059
:101A500010B107E0012010BD002084F83C002046B2
:101A600000F01EF8022084F83D00211D206801F0DE
:101A700031FA012084F8460084F83E0084F83F00E3
:101A800084F8400084F8410084F8420084F8430060
:101A900084F8440084F8450084F83D00002010BD1F
:101AA00008B5124A01681248914207D1016841F015
:101AB00002010160006800F0020009E00D4A914255
:101AC00008D1016841F004010160006800F00400E1
:101AD000009008BD084A9142FBD1016841F04001E5
:101AE0000160006800F04000F2E7000000040040E0
:101AF00040380240000800400018004070470000D5
:101B000010B50446022249B104290ED0082913D089
:101B100094F84100012816D0012010BD94F83E0031
:101B20000128F9D184F83E200FE094F83F00012805
:101B3000F2D184F83F2008E094F840000128EBD16E
:101B400084F8402001E084F841200122206801F05F
:101B50002DFA16492068164A884201D0904203D1D6
:101B6000436C43F4004343642068884213D0B0F1CF
:101B7000804F10D00F4988420DD00F4988420AD0BB
:101B80000E49884207D0904205D00D49884202D0C4
:101B90000C49884204D1816801F00701062903D06D
:101BA000016841F001010160002010BD000001400A
:101BB000000401400004004000080040000C004008
:101BC000004001400018004000680349884201D1EC
:101BD000FFF706B9704700000010004070477047DB
:101BE00010B504460068406994F84110C0F3C01075
:101BF000212911D180B12068143050E8001F21F054
:101C0000800140E80012002AF5D1A06B08B1FEF770
:101C100015FE204601F079FB2068406994F84210D7
:101C2000C0F38010222911D180B12068143050E80F
:101C3000001F21F0400140E80012002AF5D1E06BBE
:101C400008B1FEF7FBFD204601F038FB002010BD77
:101C500070470000F8B5016804460868CA684B6917
:101C600010F00F0F4FF000055AD003F0010602F4F8
:101C70009077374365D0C10705D0D10503D5616C96
:101C800041F001016164410705D5D90703D0616CBA
:101C900041F002016164810705D5D90703D0616C69
:101CA00041F004016164010707D502F020013143CE
:101CB00003D0616C41F008016164616C00293BD084
:101CC000800604D5900602D5204601F02CFB206842
:101CD0004069616CC0F3801001F0080101432046A7
:101CE0002BD001F0EBFA20684069400621D520682E
:101CF000143050E8001F21F0400140E80012002A93
:101D0000F5D1E06BA8B16E490165E06BFEF7DFFD30
:101D1000002811D0E06B016D01B0BDE8F04008472C
:101D200083060ED593060CD52046BDE8F84001F099
:101D3000FABA2046FFF78CFFF8BDFFF789FF65640C
:101D4000F8BD266B2023012E7DD1C6067BD5D60695
:101D500079D508684868009048694FF00206400647
:101D600041D5E16B086840680004000CE8D0A28D02
:101D70008242E5D9E085C869B0F5807F2DD0206822
:101D80000C3050E8001F21F4807140E80012002A56
:101D9000F5D12168143151E8000F20F0010041E82D
:101DA0000002002AF5D12068143050E8001F21F00D
:101DB000400140E80012002AF5D184F84230256342
:101DC00020680C3050E8001F21F0100140E800129C
:101DD000002AF5D1E06BFEF731FD6663A08DE18D41
:101DE000401A81B22AE0A08DE18D401A81B2E08DC7
:101DF0000028A5D00029A3D022680C3252E8000F99
:101E000020F4907042E80007002FF5D120681430CC
:101E100050E8002F22F0010240E80027002FF5D102
:101E200084F84230256320680C3050E8002F22F0FF
:101E3000100240E80023002BF5D166632046FFF72F
:101E4000CEFEF8BDFFE705062BD5150629D594F87B
:101E500041002128F5D1A068B0F5805F01D120694B
:101E6000B0B1206A411C2162216800784860E08C92
:101E7000401E0004000CE084E3D12068C16821F01A
:101E80008001C1602068C16841F04001C160D8E7AD
:101E9000206A0088C0F308004860206A801C206225
:101EA000E5E74006CDD55006CBD5CA68204622F0DE
:101EB0004002CA6084F8413000F05AF9C1E70000DE
:101EC000BF31000870B5040004D094F8410000252B
:101ED00010B106E0012070BD84F84050204600F0AB
:101EE00023F8242084F841002068C16821F40051BF
:101EF000C160204601F078FA2068016921F4904120
:101F000001612068416921F02A0141612068C168AE
:101F100041F40051C1606564202084F8410084F8D8
:101F200042006563002070BD2DE9F04786B006468B
:101F300014216846FEF7EEF95648DFF8548114384C
:101F4000D6F800C000245349022203230725DFF8F6
:101F500048A107154FF48079C44538D1D1F800C0A5
:101F60004CF0100CC1F800C0096801F01001059197
:101F7000016841F0010101600068694600F001005C
:101F8000059058028DE81500CDE903355046FEF75F
:101F900023FE434D414828607804C5E90104C5E9A2
:101FA00003476C61C5E906494FF44030C5E90804B0
:101FB0002846FEF76FFD08B1FEF78DFBF5630022A2
:101FC00005212520AE63FEF7A3FF25205DE0DFF8A5
:101FD000D480C4451DD12F49091F0E6846F4003630
:101FE0000E60096801F400310591016841F00101BA
:101FF00001600068694600F0010005900C208DE842
:102000001500CDE903355046FEF7E6FD06B0BDE804
:10201000F087254DAC45F9D10D6845F020050D60E0
:10202000096801F020010591016841F00401016097
:102030000068694600F004000590C0208DE8150096
:102040000820CDE903301948FEF7C6FD144D1348AA
:102050006035183828608005C5E90104C5E90347E3
:102060006C61C5E906494FF40030C5E9080428460B
:10207000FEF710FD08B1FEF72EFBF56300220621E6
:102080004720AE63FEF744FF4720FEF733FFBDE76E
:102090000010014044380240000002404064024009
:1020A0009C0700200044004000140140000802404A
:1020B00090F84230202B01D00220704721B11AB194
:1020C0000023036301F016BA012070477047704780
:1020D0002DE9F843044690F84100984616460D460F
:1020E000202802D00220BDE8F88385B17EB100200F
:1020F0006064212084F84100FEF76CFEA6848146CE
:10210000E684A0682027B0F5805F02D003E00120BC
:10211000E9E7206910B12E4600250EE000260CE00C
:102120008021204601F02EFAA8B9C6B116F8010B9D
:1021300021684860E08C401EE084E08C4B464FF004
:102140000002CDF800800028EAD14FF0400120467F
:1021500001F018FA40B184F841700320C3E735F864
:10216000020BC0F30800E3E784F841700020BAE7EF
:1021700070470000BFF34F8F05480168054A01F41E
:10218000E06111430160BFF34F8F00BFFDE7000026
:102190000CED00E00400FA050D4808B5016841F4B3
:1021A000800101600068002200F480000090052199
:1021B0003920FEF7ADFE3920FEF79CFE00220521F6
:1021C0003A20FEF7A5FEBDE808403A20FEF792BE91
:1021D0003038024010B501F037FC00F075FC00F01B
:1021E000BAFCFEF755F914489FED120A134A80ED28
:1021F000010A80ED020A80ED000A0021104801F07A
:1022000039FD104C0D4A0021206024320E4801F0A7
:1022100031FD0A4A6060483200210C4801F02AFD75
:10222000064AA0606C320021094801F023FDE060FD
:1022300010BD00000000000080050020FC570008D1
:10224000B731000834000020E904000845370008D1
:10225000ED3600082DE9F04186B014216846FEF7FE
:1022600059F825480024016841F0800101600168A7
:1022700001F080010591016841F0040101600168ED
:1022800001F004010591016841F00101016001685C
:1022900001F001010591016841F00201016000684F
:1022A000164F00F002000590012204213846FEF787
:1022B0008BFDDFF84C80002230214046FEF784FD84
:1022C000002210213846FEF77FFD1420012502264A
:1022D000CDE90005CDE9024669463846FEF77CFCAB
:1022E0003020CDE90005CDE9024669464046FEF7BB
:1022F00073FC06B0BDE8F0813038024000080240AF
:102300000000024030B587B01C216846FEF702F895
:102310001D4C1C48002520600620C4E9010547F239
:102320002F50C4E903058020A0612046FFF78BFBF6
:1023300008B1FEF7D0F96020009040F6CA00CDE960
:1023400001050022694610480495FFF716FB08B105
:10235000FEF7C1F92068816921F00801816104223A
:1023600069460948FFF709FB08B1FEF7B4F9206890
:10237000816921F4006181610348FFF797FA07B092
:1023800030BD0000001800407C06002010B586B06B
:1023900000241648009401940294039404944FF08E
:1023A0008041059401605321C0E901140921C0E96D
:1023B000031480218161FFF7E7F808B1FEF78BF97C
:1023C0004FF48050009069460848FFF767F908B15C
:1023D000FEF781F9049404A904480594FFF78CF8EA
:1023E000002801D0FEF777F906B010BDA405002043
:1023F00030B589B0002507951C2168460895FDF782
:1024000089FF2E4C2C4820600620C4E9010547F2C4
:102410002F50C4E903058020A0612046FFF713FB7D
:1024200008B1FEF758F9079507A924480895FFF762
:1024300063F808B1FEF74FF96020009040F6CA003B
:10244000CDE90105002269461C480495FFF795FA7D
:1024500008B1FEF740F92068816921F00801816127
:10246000042269461548FFF788FA08B1FEF733F9E8
:102470002068816921F400618161082269460F4862
:10248000FFF77BFA08B1FEF726F92068C16921F051
:102490000801C1610C2269460848FFF76EFA08B1CD
:1024A000FEF719F92068C16921F40061C161034890
:1024B000FFF7FCF909B030BD00040040EC05002036
:1024C00030B589B0002407941C2168460894FDF7B4
:1024D00021FF214D1F4828600620C5E9010447F26D
:1024E0002F50C5E903048020A8612846FFF7ABFA06
:1024F00008B1FEF7F0F8079407A917480894FEF70B
:10250000FBFF08B1FEF7E7F86020009040F6CA0034
:10251000CDE90104082269460F480494FFF72DFA1B
:1025200008B1FEF7D8F82868C16921F00801C16137
:102530000C2269460848FFF720FA08B1FEF7CBF8ED
:102540002868C16921F40061C1610348FFF7AEF951
:1025500009B030BD00080040340600200C4810B51A
:102560000A4901604FF4E1314160002181600C2291
:10257000C160C0E904128161C161FFF7A3FC0028BA
:1025800003D0BDE81040FEF7A6B810BD0010014012
:10259000C40600200C4810B50A4901604FF4E1312F
:1025A0004160002181600C22C160C0E90412816198
:1025B000C161FFF787FC002803D0BDE81040FEF79B
:1025C0008AB810BD004400400C0700200C4810B52C
:1025D0000A4901604FF461314160002181600C22A1
:1025E000C160C0E904128161C161FFF76BFC002882
:1025F00003D0BDE81040FEF76EB810BD00140140D6
:1026000054070020FEE7000010EE100A0949884236
:1026100002DD40F6D720704710EE100A06498842C6
:1026200002DA40F2BD607047BCEEC00A10EE100A3C
:1026300080B2704700702D4500A0D74410B512B18C
:10264000012A03D005E000F051F802E0084600F04E
:102650007FF92248224990ED050A0B68BCEEC00ABA
:1026600010EE102A5A6390ED040A0968BCEEC00A05
:1026700010EE102A8A6390ED060A1A49BCEEC00AD1
:102680000B6810EE102A1A6490ED070A0B68BCEE76
:10269000C00A10EE102ADA6390ED000A0B68BCEE57
:1026A000C00A10EE102A9A6390ED010A0968BCEE88
:1026B000C00A10EE102A4A6390ED030A0A49BCEEE4
:1026C000C00A0B6810EE102ADA6390ED020A09685E
:1026D000BCEEC00A10EE100A086410BD880300208A
:1026E0007C060020EC0500203406002070B506466C
:1026F0002DED028B0D46B1F9060000EE100AB8EE82
:10270000C00AFDF7EAFFD6ED010A96ED001AB5F909
:1027100006008D4C30EEC11A00EE900AF8EEE00A89
:1027200040EE010AC4ED000AB5F9060000EE100AF9
:10273000B8EEC00AFDF7D1FFD6ED000A96ED011AFA
:10274000B5F90600F1EE600A30EEC11A00EE900A0B
:10275000F8EEE00A40EE010AC4ED010AB5F9060000
:1027600000EE100AB8EEC00AFDF7B7FFD6EC020A79
:10277000B5F9060030EEC11A00EE900AF8EEE00A54
:1027800040EE010AC4ED020AB5F9060000EE100A97
:10279000B8EEC00AFDF7A1FFD6EC020AB5F90600B3
:1027A00030EE811A00EE900A2846F8EEE00A40EE7C
:1027B000010AC4ED030A94ED000A00F099FA9FEDB6
:1027C000638A284630EE080A84ED000A94ED010A77
:1027D00000F08EFA30EE080A284684ED010A94EDE6
:1027E000020A00F085FA30EE080A284684ED020A53
:1027F00094ED030A00F07CFA30EE080A84ED030A37
:10280000B5F90200B5F90010D6ED020A0844B5F991
:1028100004100844404200EE100AB8EEC00A30EE40
:10282000200A30EE080A84ED040AB5F90200B5F971
:102830000010D6ED020A401AB5F90410084400EE63
:10284000100AB8EEC00A30EE600A30EE080A84EDD5
:10285000050AB5F90200B5F90010D6ED020A0844E0
:10286000B5F90410401A00EE100AB8EEC00A30EEB6
:10287000200A30EE080A84ED060AB5F90000B5F921
:102880000210D6ED020A401AB5F90410084400EE11
:10289000100AB8EEC00A30EE600A30EE080A84ED85
:1028A000070A94ED000AFFF7AFFE00EE100AB8EE3B
:1028B000400A84ED000A94ED010AFFF7A5FE00EE40
:1028C000100AB8EE400A84ED010A94ED020AFFF7FF
:1028D0009BFE00EE100AB8EE400A84ED020A94ED69
:1028E000030AFFF791FE00EE100AB8EE400A84EDED
:1028F000030A94ED040AFFF787FE00EE100AB8EE13
:10290000400A84ED040A94ED050AFFF77DFE00EE0F
:10291000100AB8EE400A84ED050A94ED060AFFF7A6
:1029200073FE00EE100AB8EE400A84ED060A94ED3C
:10293000070AFFF769FE00EE100AB8EE400A84EDC0
:10294000070ABDEC028B70BD8803002000A00C4577
:1029500010B5B0F906105B4C01F6CA0100EE101A72
:10296000B8EEC00A84ED000AB0F9061001F6CA01FB
:1029700000EE901AF8EEE00AC4ED010AB0F9061074
:1029800001F6CA0100EE901AF8EEE00AC4ED020A60
:10299000B0F9061001F6CA0100EE901AF8EEE00A4E
:1029A000C4ED030AB0F90210B0F900200A44B0F9EE
:1029B0000410A1F6CA011144494200EE901AF8EE43
:1029C000E00AC4ED040AB0F90210B0F90020891A37
:1029D000B0F9042001F6CA01114400EE901AF8EE95
:1029E000E00AC4ED050AB0F90210B0F90020114464
:1029F000B0F90420891A01F6CA0100EE901AF8EE27
:102A0000E00AC4ED060AB0F90010B0F90220B0F9EE
:102A10000400891A01F6CA01084400EE900AF8EE93
:102A2000E00AC4ED070AFFF7EFFD00EE100AB8EE6A
:102A3000400A84ED000A94ED010AFFF7E5FD00EE7F
:102A4000100AB8EE400A84ED010A94ED020AFFF77D
:102A5000DBFD00EE100AB8EE400A84ED020A94EDA8
:102A6000030AFFF7D1FD00EE100AB8EE400A84ED2C
:102A7000030A94ED040AFFF7C7FD00EE100AB8EE52
:102A8000400A84ED040A94ED050AFFF7BDFD00EE4F
:102A9000100AB8EE400A84ED050A94ED060AFFF725
:102AA000B3FD00EE100AB8EE400A84ED060A94ED7C
:102AB000070AFFF7A9FD00EE100AB8EE400A84ED00
:102AC000070A10BD8803002010B500211048FFF749
:102AD00017F804210E48FFF713F800210D48FFF7FF
:102AE0000FF804210B48FFF70BF808210948FFF7FE
:102AF00007F80C210748FFF703F808210648FEF7FE
:102B0000FFFFBDE810400C210348FEF7F9BF0000AD
:102B10007C060020EC050020340600200A4940F61F
:102B2000CA000A6850630968886308490A68106423
:102B30000A68D0630A6890630968486304490A68B0
:102B4000D0630968086470477C060020EC0500200B
:102B500034060020FEE7FDF719BC0000184A10B546
:102B6000B2F906300021A3F17A040A2C01D8818041
:102B700003E09B00A3F5FE738380B2F90430A3F158
:102B80007A040A2C01D8C18003E09B00A3F5FE73F0
:102B9000C380B2F90030A3F17A040A2C01D8018075
:102BA00003E09B00A3F5FE730380B2F90220A2F1BB
:102BB0007A030A2B02D99100A1F5FE71418010BD64
:102BC0002A0000202DE9F04106460320FDF730FEE3
:102BD0001D4C255C0220FDF72BFE205C05EB001050
:102BE0001A4D28800520FDF723FE275C0420FDF701
:102BF0001FFE205C07EB001068800720FDF718FE21
:102C0000275C0620FDF714FE205C07EB0010A8806F
:102C10000920FDF70DFE275C0820FDF709FE205C6A
:102C200007EB0010E8800D20FDF702FE255C0C206C
:102C3000FDF7FEFD205C05EB001030813046BDE85D
:102C4000F041FFF78BBF0000080300202A0000209E
:102C500010B5064C002210212046FEF7B5F820469C
:102C60000022BDE810402021FEF7AEB8000002406F
:102C700010B5064C012210212046FEF7A5F820468B
:102C80000122BDE810402021FEF79EB8000002405E
:102C900010B50023104A15E0362809D039280BD08A
:102CA0003C2812D014783F2813D044F0800406E06A
:102CB000147844F0010402E0147844F00204147023
:102CC000401C5B1C8B42E7D310BD147844F0080411
:102CD000F5E744F00404F2E7280000208AB2014638
:102CE0004FF0FF330148FFF7F3B90000540700200D
:102CF000B0F90600DFED080A002805DDB5EEC00AD0
:102D0000F1EE10FA05D37047B5EEC00AF1EE10FAF5
:102D1000F9DDB0EE600A7047000000002DE9F047D1
:102D2000244C064691ED020A089884ED010AD1ED83
:102D3000010A1F46C4ED000AD1ED000A91460D4676
:102D4000C4ED020AC00704F10C0824D1D6ED000A34
:102D5000A4F1A80030EE600A01F006F888ED010A3F
:102D600094ED000AD6ED010AA4F1700030EE600A7D
:102D700000F0FAFF88ED000AB9F8040058B994EDA4
:102D8000000AD6ED020AA4F1380030EE600A00F025
:102D9000EBFF88ED020A98ED000A87ED010A98ED35
:102DA000010A87ED000A96ED020A85ED000ABDE8EA
:102DB000F0870000F804002010B54FF0E020006913
:102DC00002F05EFA012803D0BDE8104001F08CBF8C
:102DD00010BD000030B593B030216846FDF79AFA77
:102DE00014210CA8FDF796FA1D480025016841F052
:102DF00080510160006800F080501190194801680E
:102E000041F4804101600068022400F48040119088
:102E100001200090000401908001CDE9064008AA3D
:102E20000420A82182E813000B906846FEF7ACF955
:102E300008B172B6FEE70CA90F2081E831004FF40B
:102E4000A0500F904FF48050109005210CA8FEF771
:102E500091F8002801D072B6FEE713B030BD000033
:102E600040380240007000400248016841F470019F
:102E70000160704788ED00E070B51048FEF77DFCFA
:102E80000F4C6068B0F5FA6F01DB00206060A1684C
:102E90000C4D884204DC012210212846FDF794FFE6
:102EA000D4E90101884204DD002210212846FDF703
:102EB0008BFF6068401C606070BD0000A4050020AE
:102EC0004C000020000802400148FEF756BC0000FC
:102ED000B8080020F0B50268294C2A4D2A4E2B4F25
:102EE0002B4B4FF0804CA04209D0604507D0A84240
:102EF00005D0B04203D0B84201D0984204D122F0AC
:102F0000700E4A6842EA0E02A0421BD0604519D0FA
:102F1000A84217D0B04215D0B84213D0984211D071
:102F20001C4DA8420ED01C4DA8420BD01B4DA842F0
:102F300008D01B4DA84205D01A4DA84202D01A4D08
:102F4000A84203D122F44075CA682A434D6922F091
:102F500080022A4302608A68C2620A688262A042D2
:102F600001D0984201D109690163012141610169E0
:102F7000C90703D0016921F001010161F0BD000022
:102F8000000001400004004000080040000C004028
:102F9000000401400040014000440140004801405D
:102FA00000180040001C00400020004010B501F057
:102FB0001F030121046A99408C430462016A9A400C
:102FC0001143016210BD10B5846842EA032224F463
:102FD0007F440A432243826010BD826822F070025F
:102FE0000A4342F00701816070470000F0B5036AB0
:102FF000026A22F00102026242688469124E24F0E1
:1030000073050C682C4323F002058B682B430D4D90
:10301000A84201D0B04205D123F00807CB683B435A
:1030200023F00403A84201D0B04205D14D6922F437
:10303000407215438A692A4342608461496841634A
:103040000362F0BD0000014000040140F0B5026AD7
:10305000036A23F010030362436884690D6824F453
:10306000E64444EA05248D6822F0200242EA051273
:103070000F4D104EA84201D0B04206D1CF6822F0C9
:10308000800242EA071222F04002A84201D0B04278
:1030900007D14D6923F4406343EA85038D6943EA10
:1030A000850343608461496881630262F0BD00006A
:1030B0000000014000040140F0B5026A036A23F4F5
:1030C000807303624368C46922F4007224F07305BC
:1030D0000C68124E2C438D6842EA05220E4DA84220
:1030E00001D0B04206D1CF6822F4006242EA072242
:1030F00022F48062A84201D0B04207D14D6923F486
:10310000405343EA05138D6943EA05134360C461E4
:103110004968C1630262F0BD000001400004014043
:1031200030B5046A026A22F4805202624268C369BE
:103130000D6823F4E64343EA05238D6824F4005424
:1031400044EA0534084DA84202D0084DA84204D1F3
:103150004D6922F4804242EA85124260C3614968A7
:103160000164046230BD0000000001400004014021
:1031700010B5036A046A24F001040462846924F02F
:10318000F00444EA021423F00A020A438461026252
:1031900010BD10B5036A046A24F010040462846947
:1031A00023F0A00324F4704444EA023243EA0111FC
:1031B0008261016210BD052000F01AFDFBE710B529
:1031C000806B0021C185C184FEF742FD10BD70B542
:1031D000846B2068406994F84110C0F3C01000254A
:1031E000212904D118B1E584204600F08EF820682A
:1031F000406994F84210C0F38010222904D118B11C
:10320000E585204600F05AF8606C40F010006064DC
:103210002046FEF71DFD70BD10B50146806B0968A4
:1032200009684FF00002C9052ED4C28501680C312F
:1032300051E8003F23F4807341E80034002CF5D1BD
:103240000168143151E8003F23F0010341E80034E4
:10325000002CF5D10168143151E8003F23F0400300
:1032600041E80034002CF5D1202180F84210016B98
:10327000012909D101680C3151E8003F23F0100306
:1032800041E80034002CF5D14263016B012902D0E2
:10329000FEF71CFF10BD818DFEF7A1FC10BD10B51F
:1032A000806B01214163016B012902D0FEF70FFF02
:1032B00010BD818D4908FEF792FC10BD01680C31EC
:1032C00051E8002F22F4907241E80023002BF5D141
:1032D0000168143151E8002F22F0010241E8002377
:1032E000002BF5D1016B012909D101680C3151E89E
:1032F000002F22F0100241E80023002BF5D12021FD
:1033000080F8421000210163704701680C3151E8D8
:10331000002F22F0C00241E80023002BF5D120212C
:1033200080F84110704708B590F84210222901D06A
:10333000022008BD82684FF480539A4201D101698E
:1033400021B1816A9A421BD04AB10AE00268816ABF
:103350005268C2F308020A80816A891C08E0026987
:1033600072B10268526802F07F020A70816A491CD9
:103370008162C18D491E0904090CC18503D01BE07F
:1033800002685268F1E70168CA6822F02002CA6048
:103390000168CA6822F48072CA6001684A6922F032
:1033A00001024A61202180F8421000214163026B32
:1033B000012A03D0FEF78AFE002008BD01630168E0
:1033C0000C3151E8002F22F0100241E80023002BBD
:1033D000F5D101680A68D20602D50A6849680091E9
:1033E000818DFEF7FCFBE7E770B5044600680169D4
:1033F000E26821F44051114301612169A068E2694A
:1034000008436169114308432168CA6849F20C63A3
:103410009A430243CA6020684169A26921F440715D
:103420001143416131492068884202D030498842C5
:1034300002D1FDF769FE01E0FDF756FEE2690023C7
:10344000192164253226B2F5004F626828D0A0FB0E
:103450000101930F9200FCF713FF0146B0FBF5F05A
:103460006FF01802504301EB800006EB0010B0FB38
:10347000F5F000F0F002B1FBF5F002EB0012B1FB49
:10348000F5F06FF01803584301EB800006EB0010D5
:10349000B0FBF5F000F00F0021681044886070BDAB
:1034A000A0FB010192185B41FCF7EAFE0146B0FB6C
:1034B000F5F00201B1FBF5F06FF01803584301EB92
:1034C000800006EBC000B0FBF5F000F0F80002EB66
:1034D0004002B1FBF5F0584301EB800006EBC00061
:1034E000B0FBF5F000F00700D6E700000010014047
:1034F0000014014038B581620446828500201346DD
:103500006064222284F84220E56B1B4AEA63E56B83
:103510001A4A2A64E56B1A4AEA64E26B10650A46A5
:103520002168E06B091DFDF71FFB206801684068FA
:103530000090206948B120680C3050E8001F41F429
:10354000807140E80012002AF5D12068143050E85C
:10355000001F41F0010140E80012002AF5D1206867
:10356000143050E8001F41F0400140E80012002AEA
:10357000F5D1002038BD0000193200089F32000844
:10358000CF3100082DE9F843984617460D4604460A
:10359000089E24E0701C22D0FDF71CFCA0EB080064
:1035A000B0421AD8CEB12068C168490717D5802D1E
:1035B00015D0402D13D00168C94309070FD4016805
:1035C0000025406800902046FFF778FE08206064E0
:1035D00084F840500120BDE8F8830320FBE7206811
:1035E000006835EA000004D00020B842D2D00020A4
:1035F000F1E70120F9E7000038B52748FEF72AFB7C
:10360000254800680168C943C90643D4234C217882
:10361000662938D16178662935D10168002540686E
:1036200000901D48FEF7DCFAFF208DF800001C48D2
:10363000E17AA27A6B1E415C825C01EB02118DF88B
:103640000110617B227B415C805C042201EB001055
:103650008DF802000E208DF8030069461148FEF730
:1036600037FD002004F14401225C0A54401C182854
:10367000FADB0D484FF6EE720188914200D30580C7
:103680000188491C0180BDE83840182203490248DE
:10369000FEF70EBD38BD0000C40600205C08002007
:1036A000080300200C0700204C00002070B50D48D6
:1036B000FEF7D0FA0B4800680068C043C0060FD47C
:1036C000094D0024285D00F035F9641CE4B22C2C6F
:1036D000F8D3BDE870402C2203490248FEF7E8BC4D
:1036E00070BD000054070020740800200F4C104DDE
:1036F000104E2068C16841F01001C1602868C1689F
:1037000041F01001C16018220B490848FEF7D0FCB7
:103710002C220A490648FEF7CBFCFFF799FA8C20C9
:10372000FCF7ECFFF06800F0E9FAE2E7C4060020DD
:1037300054070020340000205C080020740800209A
:10374000FEE7000008B5002500F05FFA14261B4CC8
:10375000DFF86C80642700901421684601F0FCF8C3
:10376000B5FBF6F006FB105010B9FCF7CDFF20803A
:10377000B5FBF7F007FB105010B9FCF7C5FF6080F0
:1037800060882188884207D13222B5FBF2F302FB20
:1037900013520AB10022A280884201D00120A080E9
:1037A000B8F9080000EBD0704010C00702D0FFF756
:1037B0005FFA01E0FFF74CFA1435CDE74400002032
:1037C00098050020032802D96FF005007047034ACE
:1037D000106211700020D0617047000000000020CE
:1037E0002DE9FC5F0D46064628446FF0050C902835
:1037F0007CD2494C6FF004092046D4F820804268FE
:103800004FF0FF0A4FF0AA0B4FF0270EF7B2C6F3A6
:103810000721B8F1000F0FD04FF6FF7000EA450303
:103820002046B8F1010F007816D0B8F1020F33D05E
:10383000B8F1030F6ED142E0042D6BD8F2B38DF8CE
:1038400000A08DF801B08DF802E08DF804108DF81D
:1038500003700521684659E082B35B1DB3F5807F94
:1038600032D88DF8000003208DF80100280A8DF869
:1038700002108DF804008DF803708DF805500621B4
:10388000684600F00DF9010A8DF806108DF8070062
:1038900008216846626839E0032D3BD823696BB183
:1038A0008DF800A08DF801B08DF802E08DF80410BD
:1038B0008DF8037005226946984728E017E0E7680D
:1038C000AFB1B3F5807F03D96FF00300BDE8FC9F73
:1038D0004006F1B2000E114AB847012817D16269BB
:1038E0002AB10E49002001F580730BE012E0484632
:1038F000ECE700BF31F8107000EB060C401C23F819
:103900001C7080B2A842F5D329463046904700206B
:103910006662DBE76046D9E700000020E80000208F
:1039200018B103494861002070476FF005007047E7
:10393000000000202DE9FC413B4C6169002955D075
:103940003A49E2698854521CE261206A002630B18B
:1039500001282FD0022865D0032860D162E00878C2
:10396000552804D0521E3148491CE2613CE00B2A24
:1039700055D30A252D4F00204FEA000317F803C046
:103980005B1C6044C0B2AB42F8D38B7A8342E9D16E
:103990004888ADF800008888ADF80200C888ADF806
:1039A00004000889ADF80600487804226946FCF74F
:1039B000D9FD37E0022A32D948780328D2D1887855
:1039C000401D904212D888180D4630F8020C921E05
:1039D00047BA91B2154800F063F8874208D0E2690F
:1039E000691C521E1148E261FCF77BFCBDE8FC81BA
:1039F000A8780F4B42080021606A0AE005EB4107F6
:103A000001EB000CB7F80370491C7FBA23F81C7057
:103A100089B29142F2D311466269904702E0B2F551
:103A2000807FE3D1E661E1E700000020E8000020AC
:103A3000E801002018B103494860002070476FF08A
:103A400005007047000000202DE9F04150210020C2
:103A5000FFF7B8FE0E48FFF7EDFF0E48FFF760FFD7
:103A60000126DFF834800D4D002702242F7003213A
:103A70003420FFF7B5FE4046401EFDD228780028CE
:103A800004D1641EF2D1761C0A2EEEDBBDE8F08173
:103A9000DD2C0008912C00087E969800280000205C
:103AA000F0B5FF23084E1C46002206F5807705E09E
:103AB000855C5D40735D63407C5D521C8A42F7DB30
:103AC00044EA0320F0BD0000FC5500080907090E78
:103AD000002804DB00F1E02080F80014704700F0BB
:103AE0000F0000F1E02080F8141D704702E008C8C4
:103AF000121F08C1002AFAD170477047002001E068
:103B000001C1121F002AFBD17047B4EEE00AF1EEAA
:103B100010FA02D2B0EE600A7047B4EEC10AF1EEBC
:103B200010FAF9DDB0EE410A704700002DE9F041CE
:103B3000040006D0184E306884420AD10020BDE847
:103B4000F081502080F31188BFF34F8FBFF36F8F48
:103B5000FEE700F003FE6569776BB66B00F01EFEB2
:103B6000BD4201D0B54201D10220E8E70B488542B1
:103B700008D1A06A0028F7D194F858000128F3D0A2
:103B80000320DCE705481438854202D00DB101203E
:103B9000D5E70420D3E7000068000020F00D0020E6
:103BA0001148401EFDD2FDF723F9FFF713F9FEF788
:103BB00051FBFEF7F1FAFEF7EDFCFEF7A3FBFEF773
:103BC00017FCFEF77DFCFEF7C9FCFEF7FFFCFEF7D5
:103BD000DDFB0648FDF722FD00F01EF8FEF7FAFABD
:103BE00000F02CF8FEE7000040420F00A405002082
:103BF00010B5EFF3058111B16FF0050403E0002467
:103C000008B100F083FE204610BDEFF3058008B137
:103C100001F04ABB01F042BBEFF3058010B16FF039
:103C2000050070470448016811B14FF0FF3070473C
:103C30000121016000207047B800002010B5EFF3AB
:103C4000058010B16FF0050010BD0848016801291A
:103C500002D04FF0FF3010BD054A002182F8141D3C
:103C60000221016000F048FF002010BDB8000020D4
:103C70000BE000E02DE9FF410B464FF00005EFF3AC
:103C80000581039549BB40B38027182100244AB31E
:103C9000166806B1344696691EB13146761E382E36
:103CA00002D21679F60703D0002004B0BDE8F081F7
:103CB000566906B1B708D2F808C0BCF1000F0DD0A4
:103CC000D5685C2D18D312693AB136B18DE806106B
:103CD0003A46214601F0A9FA03900DE0D6685EB994
:103CE00012694AB903AACDE90012BAB2214601F01D
:103CF0006FFA012800D003950398D6E770B5054602
:103D0000EFF3058010B16FF005040FE04DB12846C8
:103D1000FFF70CFF042807D00024284600F062FEBD
:103D200004E06FF0030401E06FF00204204670BD70
:103D30009FED0C3A00F1140180ED003A80ED013A5C
:103D400080ED023A80ED033A80ED043A80ED083AC6
:103D500080ED093A80ED0A3A2C3081EC030AC0EC80
:103D6000031A70470000000010B580ED010AD0ED85
:103D7000031AD0ED0D0A044640EE201AC0ED031AD6
:103D800090ED0B1AB5EEC01AF1EE10FA07D0F1EE75
:103D9000410AB0EE610AFFF7B8FE84ED030A94ED24
:103DA000010AD4ED020AD4ED0D1A70EE600A80EE1D
:103DB000A11A84ED041AD4ED050A60EE800AC4ED60
:103DC000080A94ED060AD4ED031A20EE210A84EDC8
:103DD000090AD4ED071A30EE800A21EE811A84ED2B
:103DE0000A1A30EE010A94ED0C1AB5EEC01AF1EE83
:103DF00010FA03D0F1EE410AFFF787FED4ED010A75
:103E0000C4ED020A10BD00002DE9F041134C0F462D
:103E10000546E6682068001D00F044FC681C07D1D8
:103E200037B12168BDE8F0410D48091D00F08ABC9A
:103E300020683544B5424560216805D2A06BBDE8D5
:103E4000F041091D00F066BC606B091D00F062FCCA
:103E5000A06A854200D2A562BDE8F081680000201A
:103E6000F00D00202DE9F041054600F077FC2D4CC7
:103E7000A068401CA06020682B4F10B1606930B36F
:103E80002BE02560A068012827D1002606EB8600DC
:103E900007EB800000F030FC761C382EF6D3234868
:103EA00000F02AFC2148143000F026FC1F4828307E
:103EB00000F022FC1D483C3000F01EFC1B48503036
:103EC00000F01AFC194860631430A06305E0206814
:103ED000E96AC06A884200D82560606A401C606256
:103EE0006864E86A2169884200D9206100EB80009B
:103EF00007EB8000291D00F025FC00F04FFC6069F5
:103F000000280CD02068E96AC06A884207D20849B4
:103F10004FF080500860BFF34F8FBFF36F8FBDE845
:103F2000F08100006800002040090020A00D002062
:103F300004ED00E038B500F011FC104C2068C8B961
:103F40000F4800F0D9FB0E48143000F0D5FB0C48A8
:103F5000E060143020610A4B0020F03B009003F138
:103F6000500210210A2000F0D5FE206010B105A1FA
:103F700000F096FCBDE8384000F010BCA400002022
:103F8000F40E0020546D72510000000030B4026C39
:103F90000B46002A0BD0C1681144C1608468A1425D
:103FA00001D30168C16030BC1846FCF79AB930BC37
:103FB00070472DE9F041856B174604460026026CD8
:103FC00082B1C7B1E068FCF78CF9E168206C091A8E
:103FD000E1602268914202D2A168081AE060022FD3
:103FE00016D017E02068A8B9A06801F0C9F9064604
:103FF0000020A0600EE06068FCF773F9216C606837
:1040000008446060A168884204D32068606001E0D1
:1040100005B16D1E6D1CA5633046BDE8F08110B57D
:10402000044690F8590058B101280CD002280FD04E
:10403000502080F31188BFF34F8FBFF36F8FFEE7DF
:10404000206B00F0BFFB2046BDE8104000F0BABB7B
:1040500010BD000010484FF47051420706D0C01D3B
:104060000D4920F00700411AC1F570510B4A002399
:104070000144C2E900030839183A21F00701116030
:104080004B600B600B1AC0E9001393604FF00040C7
:104090005360506170470000D4150020D400002008
:1040A000144E154CA6F29C474FF08058DFF84C9008
:1040B00012E000BF00F052FBF068C568281D00F058
:1040C000F1FAA068401EA0606068401E606000F0C9
:1040D00065FB2846FFF7A3FF60680028EAD138682F
:1040E0000128F9D9C9F80080BFF34F8FBFF36F8F54
:1040F000F2E70000DC0D00206800002004ED00E085
:1041000070B51D46049C51B1C4F80020C4E90F01EC
:104110000121204600F032FE84F84C5070BD24602E
:10412000F4E700002DE9F05F8846DDE90B941546C1
:10413000834691009A460A9EA522206BFCF7E3F87D
:104140006FF00301206B01EB8501084420F00707A5
:10415000780707D0502080F31188BFF34F8FBFF34B
:104160006F8FFEE70025B8F1000F0FD05FF0000061
:10417000221818F8001082F8341018F8001011B145
:10418000401C1028F4D384F8435001E084F83450E4
:10419000382E00D33726E662C4E91365201D00F0EF
:1041A000B6FA04F1180000F0B2FA2461C6F1380042
:1041B0006462A061656584F8585052465946384695
:1041C00000F05AFA2060B9F1000F01D0C9F80040A0
:1041D000BDE8F09F30B5114900E011460A688242FF
:1041E000FBD34B685C18844203D140681844486094
:1041F000084643681C18944209D1084C183C2468AE
:10420000A24209D052681A4442600A6812680260E9
:10421000814200D0086030BD0460F9E7D40000207E
:1042200070B5002441600B4D0061914206D8D11A4F
:104230008269914206D2011D286907E09A4203D2A1
:10424000994201D3012403E0011DE86800F062FAFD
:10425000204670BDA400002010B5044600F07EFA90
:10426000A06B28B15FF0000400F098FA204610BD62
:104270000124F9E730B589B03C4D6EE00498002880
:1042800006DADDE90601059A90470498002864DB08
:10429000069C606910B1201D00F004FA03A800F02C
:1042A000D7F8024604980A2857D2DFE800F005053F
:1042B000052D334A05052D3394F8280040F0010000
:1042C00084F828000599A069059B01442046FFF762
:1042D000A7FF68B3216A2046884794F82800400762
:1042E0003BD5002000900598A1690023421819468B
:1042F000204601F04FF9D8B9502080F31188BFF360
:104300004F8FBFF36F8FFEE714F8280F20F00100E6
:10431000207022E094F8280040F0010084F8280082
:104320000598A06128B1811813462046FFF778FF51
:1043300013E0502080F31188BFF34F8FBFF36F8FCE
:10434000FEE794F82800810703D4204600F03AFAEB
:1043500003E020F0010084F82800002204A9286866
:1043600000F060FE002889D109B030BDA400002013
:104370002DE9FC410F46054600F002FC01A800F0C3
:1043800067F80446019818B101F072F8BDE8FC81A5
:10439000254EAFB130690068D0B30027291B3A46DB
:1043A000306800F091FA01F063F80028EED11F495F
:1043B0004FF080500860BFF34F8FBFF36F8FE5E77A
:1043C000A542EBD801F054F8F0682746C068C468ED
:1043D000201D00F067F994F82800410719D5A0695D
:1043E0002B4641193A462046FFF71AFFA8B1002094
:1043F0000346014600902A46204601F0CBF860B9FA
:10440000502080F31188BFF34F8FBFF36F8FFEE70B
:1044100007E020F0010084F82800216A2046884740
:10442000B4E70127BAE70000A400002004ED00E093
:104430000648416B096829B1416BC968C968496878
:10444000816270474FF0FF31FAE7000068000020FA
:1044500070B5054600F022FF064E0446B06884425F
:1044600003D200F009F8012000E000202860204677
:10447000B46070BDA4000020F8B5194D20E0C068FC
:10448000C4680668201D00F00DF9216A204688479F
:1044900094F82800400713D5A0693044B04206D9EB
:1044A00024616060211DE86800F034F908E0002014
:1044B0000346014600903246204601F06BF838B1C1
:1044C000E86801680029DAD12969C5E90310F8BD57
:1044D000502080F31188BFF34F8FBFF36F8FFEE73B
:1044E000A400002008484068401C4FF0500080F3B2
:1044F000118804D0BFF34F8FBFF36F8FFEE7BFF378
:104500004F8FBFF36F8FFEE7DC000020074CE068A1
:10451000016841B1C0680021D0F80000FFF728FF12
:10452000FFF7A8FEF3E701210020F7E7A400002031
:104530002DE9F041044600F011F994F9455004F1D9
:10454000240609E0606A48B1304600F059FF08B11E
:1045500000F098FA6D1E6DB2002DF3DC4FF0FF36BF
:1045600084F8456000F01AF900F0F8F894F9445026
:1045700004F1100709E0206948B1384600F040FF17
:1045800008B100F07FFA6D1E6DB2002DF3DC84F8E7
:104590004460BDE8F04100F001B900002DE9F041B0
:1045A0000546002700F0ECFA324E306808B9FFF7F4
:1045B00051FD706905424ED1C5B3083568070ED06C
:1045C00005F00700C0F108000544680707D0502037
:1045D00080F31188BFF34F8FBFF36F8FFEE72DB3CA
:1045E0007068854237D82348183001460C6801E0CE
:1045F00020460C466168A94202D221680029F7D101
:1046000031688C4227D007682168016060680837EC
:10461000411B10290FD96019420708D0502080F3A0
:104620001188BFF34F8FBFF36F8FFEE713E0416038
:104630006560FFF7CFFD61687068401A7060B2680E
:10464000904200D2B060706901430020C4E90001CB
:10465000F068401CF06000F00BFF780707D0502096
:1046600080F31188BFF34F8FBFF36F8FFEE738469B
:10467000BDE8F081BC00002010B5031F4FF080742E
:104680001C601B1F21F001011960191F044B0B60F6
:1046900014390A60091F6FF0020244380A6010BD25
:1046A000E5440008D0E9013201699A60D0E90123AC
:1046B0005A604A68824201D182684A6000220261DF
:1046C0000868401E0860086870470000034B0360DC
:1046D00003F15C0008608020106070471C0F002010
:1046E000044B036003F15C0008604FF480701060BD
:1046F000704700007811002000F108014FF0FF32F0
:10470000C0E90112C1600161002101607047002110
:104710000161704730B50B685A1C02D000F10802E5
:1047200002E0026904E02246546825689D42FAD9F5
:1047300053684B6099608A60516008610168491C48
:10474000016030BD42684A6093688B60936859602D
:10475000916008610168491C01607047502080F336
:104760001188BFF34F8FBFF36F8F0A494868401C11
:10477000486001280CD10848006810F0FF0F07D0EE
:10478000502080F31188BFF34F8FBFF36F8FFEE788
:1047900070470000DC00002004ED00E00849486894
:1047A00028B1401E486001D180F311887047502025
:1047B00080F31188BFF34F8FBFF36F8FFEE70000C8
:1047C000DC00002070B500282AD0164DA0F10804A6
:1047D00060686969084207D1502080F31188BFF3EF
:1047E0004F8FBFF36F8FFEE722683AB1502080F3FE
:1047F0001188BFF34F8FBFF36F8FFEE78843606070
:1048000000F0BEF960686968084468602046FFF7F8
:10481000E1FC2869401C2861BDE8704000F028BE1A
:1048200070BD0000BC0000204FF0E02000210161BD
:10483000816105494FF47A720968B1FBF2F1491EB2
:1048400041610721016170476400002010B5FBF74A
:1048500001FD114910280ED300F1E02090F8F0037B
:104860000A78904207D2502080F31188BFF34F8F0F
:10487000BFF36F8FFEE709480068896800F4E060C5
:10488000884207D9502080F31188BFF34F8FBFF3C0
:104890006F8FFEE710BD0000DC0000200CED00E093
:1048A00010B5084B002200BF53F832401CB1521C17
:1048B000082AF9D310BD43F8321003EBC201486057
:1048C00010BD00000009002070B515460E460446D4
:1048D000FFF744FF94F944100020491C01D184F8EB
:1048E000440094F94510491C01D184F84500FFF7B4
:1048F00055FFA06B28B92A46314604F1240000F088
:10490000DFF82046BDE87040FFF712BE10B5020088
:1049100014D00F48006B38B1502080F31188BFF3DA
:104920004F8FBFF36F8FFEE700F02AF9002110468A
:10493000FFF76AFA00F09CFD002807D105494FF007
:1049400080500860BFF34F8FBFF36F8F10BD000022
:104950006800002004ED00E070B50D4604000BD0A7
:1049600095B11E4A106BB8B1502080F31188BFF387
:104970004F8FBFF36F8FFEE7502080F31188BFF396
:104980004F8FBFF36F8FFEE7502080F31188BFF386
:104990004F8FBFF36F8FFEE700F0F2F8D268236805
:1049A0005919934204D98B420AD9914202D807E09F
:1049B0008B42FAD9881A21600021FFF725FA00E01E
:1049C000216000F055FD002807D105494FF08050C7
:1049D0000860BFF34F8FBFF36F8F70BD680000207A
:1049E00004ED00E070B50546FFF7B8FE1E4C05B9B2
:1049F0002568281DFFF756FEA86A18B105F11800B2
:104A0000FFF750FE606A401C60622068854207D153
:104A1000291D1648FFF796FE6068401C606007E09D
:104A2000A068401EA0602846FFF7F9FAFFF700FDD6
:104A3000FFF7B4FE6069002814D02068854211D1C8
:104A4000206B38B1502080F31188BFF34F8FBFF334
:104A50006F8FFEE706494FF080500860BFF34F8F1D
:104A6000BFF36F8F70BD000068000020DC0D0020D8
:104A700004ED00E002490A6A0260C96841607047BB
:104A80006800002001490120C861704768000020CB
:104A900010B50C4650B1094909681831FFF73AFEC4
:104AA0002046BDE810400121FFF7AEB9502080F349
:104AB0001188BFF34F8FBFF36F8FFEE768000020B0
:104AC00070B514460D4668B10A4909681831FFF7F8
:104AD00039FE0CB14FF0FF3521462846BDE8704045
:104AE000FFF792B9502080F31188BFF34F8FBFF3C7
:104AF0006F8FFEE76800002030B587B00024039474
:104B000005AA04A903A80494FFF7E0FDDDE9030169
:104B10000094CDE90110002315A11748059A00F073
:104B200084FB164D0028E8621FD000F003FD012829
:104B300009D0401C19D1502080F31188BFF34F8F4A
:104B4000BFF36F8FFEE7502080F31188BFF34F8FC4
:104B5000BFF36F8F4FF0FF30A86201206861EC60F7
:104B600007B0BDE8304000F045B807B030BD0000E8
:104B700049444C4500000000A140000868000020A6
:104B80000248016B491C0163704700006800002067
:104B9000164810B5016B11B10121C16110BD002192
:104BA000C1610169124A01E0B9B1491E01EB8103FB
:104BB00052F82330002BF7D001EB810302EB830284
:104BC00002F1080453685B685360A34201D15B683B
:104BD0005360DA680260016110BD502080F31188D3
:104BE000BFF34F8FBFF36F8FFEE700006800002018
:104BF000400900201CB537480168374A914207D167
:104C0000502080F31188BFF34F8FBFF36F8FFEE703
:104C100000683149491E884207D1502080F311882D
:104C2000BFF34F8FBFF36F8FFEE72C4908780190D9
:104C3000FF20087008788DF800009DF800009DF8AE
:104C4000002000F0F000904207D0502080F311883F
:104C5000BFF34F8FBFF36F8FFEE79DF80000204C2E
:104C600000F0500020700720A06005E09DF80020B3
:104C700052008DF80020401E9DF800201206F5D449
:104C8000A060032807D0502080F31188BFF34F8F16
:104C9000BFF36F8FFEE74FF44070A060019808707B
:104CA0000C482030016841F470010160016841F056
:104CB00070410160FFF7B8FD00206060FBF792FAD9
:104CC0000848016841F040410160FBF777FA002095
:104CD0001CBD000000ED00E071C20F4100E400E0E7
:104CE000DC00002034EF00E010B5502080F3118884
:104CF000BFF34F8FBFF36F8F00F0DEFA18B1044996
:104D00004FF080500860002080F3118810BD000033
:104D100004ED00E038B5049D18B153B1CAB181B1BA
:104D200020E0502080F31188BFF34F8FBFF36F8FC7
:104D3000FEE7502080F31188BFF34F8FBFF36F8FD2
:104D4000FEE7502080F31188BFF34F8FBFF36F8FC2
:104D5000FEE739B1502080F31188BFF34F8FBFF3C6
:104D60006F8FFEE750241C46012384F846302B4603
:104D70000094FFF7C5F9204638BD000070B50D4618
:104D8000040025D0FFF7EAFCD4E90F20216802FBDC
:104D90000011A1600021A163216861600A46D4E985
:104DA0000F01401E00FB0121E16021464FF0FF3062
:104DB00001F8440F487004F110008DB1FFF79CFC1E
:104DC00004F12400FFF798FCFFF7E8FC012070BD18
:104DD000502080F31188BFF34F8FBFF36F8FFEE732
:104DE00021690029F0D000F00BFB0028ECD0044929
:104DF0004FF080500860BFF34F8FBFF36F8FE3E732
:104E000004ED00E02DE9FF4782B01D468A464FF0D1
:104E10000008040003D0BAF1000F08D011E05020C0
:104E200080F31188BFF34F8FBFF36F8FFEE7206CC5
:104E300038B1502080F31188BFF34F8FBFF36F8FCD
:104E4000FEE7022D0AD1E06B012807D0502080F345
:104E50001188BFF34F8FBFF36F8FFEE700F010FA9A
:104E60003F4F4FF000094FF0805648B9049838B1D1
:104E7000502080F31188BFF34F8FBFF36F8FFEE791
:104E8000FFF76CFCA06BE16B884207D3022D05D0C5
:104E90000498D0B1B8F1000F1AD01EE02A4651464E
:104EA0002046FFF786F8616A19B104F1240000F08A
:104EB000A7FA20B13E60BFF34F8FBFF36F8FFFF7AC
:104EC0006DFC012006B0BDE8F087FFF767FC22E02B
:104ED0006846FFF7CFFD4FF00108FFF75FFCFFF7D3
:104EE0004FFEFFF73BFC94F94400401C01D184F8CD
:104EF000449094F94500401C01D184F84590FFF797
:104F00004DFC04A9684600F029F930B12046FFF7AE
:104F10000FFB00F0ADFA0020D4E7FFF71FFCA06BF9
:104F2000E16B884213D1FFF739FC04F110000499BA
:104F3000FFF7AEFD2046FFF7FBFA00F099FA0028D4
:104F40009ED13E60BFF34F8FBFF36F8F98E7FFF79F
:104F500025FC2046FFF7ECFA00F08AFA90E7000003
:104F600004ED00E02DE9F0471F4690468946040015
:104F700003D0B9F1000F08D011E0502080F3118860
:104F8000BFF34F8FBFF36F8FFEE7206C38B1502017
:104F900080F31188BFF34F8FBFF36F8FFEE7022FAF
:104FA0000AD1E06B012807D0502080F31188BFF3AD
:104FB0004F8FBFF36F8FFEE7FFF748FC5020EFF3F2
:104FC000118680F31188BFF34F8FBFF36F8FA06BF3
:104FD000E16B884206D3022F04D0002086F31188AB
:104FE000BDE8F08794F94550A06B3A464946204603
:104FF000FEF7DFFF681C04D06D1C84F845500120CB
:10500000ECE7606A0028FAD004F1240000F0F8F917
:105010000028F4D0B8F1000FF1D00121C8F8001039
:10502000EDE700002DE9F747002683B08A4604002B
:1050300003D0BAF1000F08D011E0502080F311889E
:10504000BFF34F8FBFF36F8FFEE7206C38B1502056
:1050500080F31188BFF34F8FBFF36F8FFEE700F02F
:105060000FF9DFF8F4804FF000094FF0805748B98E
:10507000059838B1502080F31188BFF34F8FBFF3EC
:105080006F8FFEE7FFF76AFBA56BC5B1514620465F
:10509000FEF77CFF6D1EA563206950B104F110007E
:1050A00000F0AEF928B1C8F80070BFF34F8FBFF31E
:1050B0006F8FFFF773FB012006B0BDE8F0870598FE
:1050C00008B11EB106E0FFF769FB27E06846FFF76D
:1050D000D1FC0126FFF762FBFFF752FDFFF73EFB15
:1050E00094F94400401C01D184F8449094F945009F
:1050F000401C01D184F84590FFF750FB05A9684694
:1051000000F02CF8002820460AD0FFF711FA00F032
:10511000AFF92046FFF7A0F80028B3D00020CBE776
:10512000FFF79AF890B104F124000599FFF7B0FC5D
:105130002046FFF7FDF900F09BF90028A2D1C8F83E
:105140000070BFF34F8FBFF36F8F9BE72046FFF7D1
:10515000EFF900F08DF995E704ED00E02DE9F0415D
:105160000C46050011D0C4B1FFF7F8FA174BDA6806
:105170006E682068911B471C17D02F681B6A9F42DE
:1051800019D0964217D8012410E0502080F31188DE
:10519000BFF34F8FBFF36F8FFEE7502080F311886E
:1051A000BFF34F8FBFF36F8FFEE70024FFF7F6FAD0
:1051B0002046BDE8F081884205D9401A2060284683
:1051C000FFF758FCF1E700202060DCE768000020D2
:1051D0002DE9FF5F8346DDE90E87994616468A462C
:1051E0009000FFF7DBF905001CD05C20FFF7D6F933
:1051F000040014D00020256384F85900CDE9024052
:10520000CDE900874B46324651465846FEF78AFFA5
:105210002046FEF727FE012004B0BDE8F09F284697
:10522000FFF7D0FA4FF0FF30F6E7F0B585B0DDE9D3
:105230000B640A9DA6B1DCB15C27009726630226A9
:1052400084F85960002604AFCDE90246CDE9005745
:10525000FEF768FF2046FEF705FE049805B0F0BD96
:10526000502080F31188BFF34F8FBFF36F8FFEE79D
:10527000502080F31188BFF34F8FBFF36F8FFEE78D
:105280000548416919B1006B18B100207047012031
:105290007047022070470000680000200148C06885
:1052A000704700006800002010B5FFF7CFFA0148F2
:1052B000C06810BD680000202DE9F0412E4C002789
:1052C000206B28B1A069401CA0613846BDE8F08180
:1052D000E668761CE66013D1606B006838B1502038
:1052E00080F31188BFF34F8FBFF36F8FFEE7606BC2
:1052F000A16B6163A063206A401C2062FFF798F8ED
:10530000A06ADFF87880864209D3606B0068A0B19C
:10531000606BC068C5686868864211D2A062206868
:10532000C06A00EB800158F82100012800D901274C
:10533000E0690028C9D00127C7E74FF0FF30EDE74B
:10534000281DFFF7AFF9A86A18B105F11800FFF79B
:10535000A9F9E86A2169884200D9206100EB80013F
:1053600008EB8100291DFFF7EDF9E86A2168C96A99
:105370008842CAD30127C8E76800002040090020FE
:1053800070B504004FF0000133D01B4D28688442F3
:1053900007D0502080F31188BFF34F8FBFF36F8F7A
:1053A000FEE7206D38B1401E2065E36CE26A9A4248
:1053B0001FD040B11DE0502080F31188BFF34F8F04
:1053C000BFF36F8FFEE7201DFFF76CF9E06CE06222
:1053D000C0F13800A061E06A2969884200D92861DB
:1053E000064900EB800001EB8000211DFFF7AAF9C0
:1053F0000121084670BD000068000020400900201F
:1054000070B5C068C46854B104F118000646FFF7CF
:1054100049F9144D286B50B13146134815E050201E
:1054200080F31188BFF34F8FBFF36F8FFEE7201D0E
:10543000FFF738F9E06A2969884200D928610B49E9
:1054400000EB800001EB8000211DFFF77BF9E06A93
:105450002968C96A884202D90120E86170BD00202C
:1054600070BD000068000020C80D00204009002029
:105470002DE9F0472C4D00242746286B38B1FFF763
:105480006DF9286B401E2863286B40B146E0502020
:1054900080F31188BFF34F8FBFF36F8FFEE7A968CA
:1054A000224E0120D1B3A6F5916980463068E0B163
:1054B000F068C46804F11800FFF7F4F8201DFFF746
:1054C000F1F8E06A2969884200D9286100EB80017F
:1054D00009EB8100211DFFF735F9E06A2968C96AE7
:1054E0008842E3D3C5F81C80E0E70CB1FEF7A0FFCB
:1054F000AC694CB14FEA0806FFF7DEFE00B1EE6181
:10550000641EF9D10020A861E86938B10849012773
:1055100038070860BFF34F8FBFF36F8FFFF73EF977
:105520003846BDE8F087000068000020C80D002064
:1055300004ED00E010B586B0FEF7FCFC114C2068CD
:10554000B8B100200390049005AA04A903A8FFF7AE
:10555000C7F8DDE9032102208DE8070000230AA136
:105560000B48059AFFF761FE606010B106B001209C
:1055700010BD502080F31188BFF34F8FBFF36F8FA2
:10558000FEE70000A4000020546D722053766300F3
:105590000D4500082DE9FF411E46134602000A9DF5
:1055A0004FF0000016D0144C2768002F0FD0CDE923
:1055B00000130292062917DAFFF762FE02284FF065
:1055C00000030FD0002269462068FFF71BFC04B0DF
:1055D000BDE8F081502080F31188BFF34F8FBFF3F7
:1055E0006F8FFEE72A46EEE70023324669463846CB
:1055F000FFF7B8FCEBE70000A400002000C18140E9
:1056000001C0804101C0804100C1814001C0804192
:1056100000C1814000C1814001C0804101C0804182
:1056200000C1814000C1814001C0804100C1814072
:1056300001C0804101C0804100C1814001C0804162
:1056400000C1814000C1814001C0804100C1814052
:1056500001C0804101C0804100C1814000C1814042
:1056600001C0804101C0804100C1814001C0804132
:1056700000C1814000C1814001C0804101C0804122
:1056800000C1814000C1814001C0804100C1814012
:1056900001C0804101C0804100C1814000C1814002
:1056A00001C0804101C0804100C1814001C08041F2
:1056B00000C1814000C1814001C0804100C18140E2
:1056C00001C0804101C0804100C1814001C08041D2
:1056D00000C1814000C1814001C0804101C08041C2
:1056E00000C1814000C1814001C0804100C18140B2
:1056F00001C0804101C0804100C1814000C0C101A2
:10570000C30302C2C60607C705C5C404CC0C0DCD31
:105710000FCFCE0E0ACACB0BC90908C8D81819D9A1
:105720001BDBDA1A1EDEDF1FDD1D1CDC14D4D515D1
:10573000D71716D6D21213D311D1D010F03031F1C1
:1057400033F3F23236F6F737F53534F43CFCFD3DF1
:10575000FF3F3EFEFA3A3BFB39F9F83828E8E929E1
:10576000EB2B2AEAEE2E2FEF2DEDEC2CE42425E591
:1057700027E7E62622E2E323E12120E0A06061A101
:1057800063A3A26266A6A767A56564A46CACAD6DB1
:10579000AF6F6EAEAA6A6BAB69A9A86878B8B97921
:1057A000BB7B7ABABE7E7FBF7DBDBC7CB47475B551
:1057B00077B7B67672B2B373B17170B05090915141
:1057C0009353529296565797559594549C5C5D9D71
:1057D0005F9F9E5E5A9A9B5B995958988848498961
:1057E0004B8B8A4A4E8E8F4F8D4D4C8C4484854511
:1057F000874746868242438341818040D4580008CF
:105800000000000000000000000000000000000098
:10581000000200002800000000000000000000005E
:10582000B858000800000000000000000000000060
:1058300000000000401F00002000000000000000E9
:1058400000000000AC58000800000000000000004C
:10585000000000000000000000020000280000001E
:105860000000000000000000C85800080000000010
:105870000000000000000000000000000002000026
:1058800008000000000000000000000000061016E4
:1058900000061016000000000000000001020304D2
:1058A0000607080900000000010203045553415295
:1058B0005431436865636B00417474697475646541
:1058C000436F6E74726F6C00555341525453746140
:1058D000727400007465737400000000FC580008C6
:1058E00000000020E8000000EC3A0008E45900083D
:1058F000E8000020F0540000FC3A0008FF0000001F
:105900000000000000000000000000000000000097
:105910000000000000000000000000000000000087
:105920000000000000000000000000000000000077
:105930000000000000000000000000000000000067
:105940000000000000000000000000000000000057
:105950000000000001000000100000000000000036
:105960000024F4000000000000000000000000001F
:105970000000000000000000000000000000000027
:105980000000000000000000000000000000000017
:105990000000000000000000000000000000000007
:1059A00000000000000000000000000000000000F7
:1059B00000000000000000000000000000000000E7
:1059C00000000000000000000000000000000000D7
:1059D000000000000000000000000000AAAAAAAA1F
:0459E00000000000C3
:040000050800018965
:00000001FF
